:020000040800F2
:100000003004002045010008B3050008B5050008CC
:10001000B9050008BD050008C10500080000000082
:10002000000000000000000000000000C5050008FE
:10003000C705000800000000C9050008CB0500083E
:100040005F0100085F0100085F0100085F01000810
:100050005F0100085F0100085F0100085F01000800
:100060005F0100085F0100085F0100085F010008F0
:100070005F0100085F0100085F0100085F010008E0
:100080005F0100085F0100085F0100085F010008D0
:100090005F0100085F0100085F0100085F010008C0
:1000A0005F0100085F0100085F0100085F010008B0
:1000B0005F0100085F0100085F0100085F010008A0
:1000C0005F0100085F0100085F0100085F01000890
:1000D0005F0100085F0100085F0100085F01000880
:1000E0005F0100085F0100085F0100085F01000870
:1000F0005F0100085F0100085F0100085F01000860
:100100005F0100085F0100085F0100085F0100084F
:100110005F0100085F0100085F0100085F0100083F
:100120005F0100085F0100085F0100085F0100082F
:10013000DFF80CD001F09AFD00480047B303000837
:10014000300400200648804706480047FEE7FEE7E7
:10015000FEE7FEE7FEE7FEE7FEE7FEE7FEE7FEE777
:10016000451B0008310100088168491C8160704707
:1001700070B504460D466068425D815CFB4801F045
:100180002EFA00BFF948008810F0800FFAD0A0685E
:10019000801CA06070BD70B504460D4600BF40F2E3
:1001A0002551F24801F09FFA0028F8D0EF4801F0FD
:1001B0001AFA61684A5D8854A068801CA06070BD0E
:1001C00043685A548368DB1C8360704730B54468C9
:1001D000645C4568AD5CAC4204D11C1D85682C4450
:1001E000846002E08468241D846030BD10B54368DB
:1001F0005B5C1344446863548368DB1C836010BDFC
:1002000070B50B464468E45C21025C1C45682C5DBB
:100210002143002A08DB41FA02F4C2F1100501FA79
:1002200005F52C43A1B208E002F1100441FA04F4F0
:10023000554201FA05F52C43A1B20C0A4568EC546D
:100240005C1C466831558468E41C846070BD30B520
:1002500000234468635443689C5C1C5D1D464B1C32
:10026000EC548368DB1C836030BD70B54C1C456862
:100270002D5D541C4668345D2B194C1C4668335563
:100280001B124468645C4568AD5C1D442C444568A1
:100290006C548468E41C846070BD10B543689B5C3A
:1002A000446863548368DB1C836010BD10B54368E9
:1002B0005B5C5343446863548368DB1C836010BDFC
:1002C00070B54C1C45682D5D541C4668345D2C1B74
:1002D000A3B24C1C466833551B124468645C4568E5
:1002E000AD5CED1A641B45686C548468E41C846042
:1002F00070BD70B513464468645C22024C1C4568AE
:100300002C5D2243002B01DB1A4103E05C4202FA20
:1003100004F4A2B24C1C46683255141245686C5461
:100320008468E41C846070BD70B513464468645CE6
:1003300022024C1C45682C5D22435A404C1C4668E6
:100340003255141245686C548468E41C846070BD96
:1003500070B513464468645C22024C1C45682C5DF1
:10036000224302FB03F4A2B24C1C4668325514121D
:1003700045686C548468E41C846070BD30B5436883
:100380009B5C4468655C6355531C4468E45C456849
:100390006B5C5B1CEC548368DB1C836030BD10B568
:1003A00043689C5C1B5D446863548368DB1C83600A
:1003B00010BDADF5047D4FF4007101A801F049FCBA
:1003C00000F004F900F010FA00F0DDFB6849086065
:1003D00000F0B4FB67490860084600686649884237
:1003E00072D14FF40072002101A800F081FB0DF1E1
:1003F000060081909DF80400801C01A908448290A9
:100400000020839000BF83998198405C112872D2AC
:10041000DFE800F0090D151D2837434F5B66727E3B
:100420008995A0B4BF0081A8FFF79EFEBEE0839827
:10043000401C819A115C81A8FFF79AFEB6E0839870
:10044000401C819A115C81A8FFF7A5FEAEE083985D
:10045000801C819B1A5C8398401C195C81A8FFF763
:10046000AFFEA3E08398C01C819C205C43B28398BC
:10047000801C225C8398401C215C81A8FFF7A6FEAB
:1004800094E08398801C819B185C42B28398401C46
:10049000195C81A8FFF7AAFE88E08398801C819BE5
:1004A000185C42B28398401C195C81A8FFF7A8FE33
:1004B0007CE08398801C819B1A5C8398401C195CAB
:1004C00081A8FFF7C4FE71E071E08398801C819BD6
:1004D0001A5C8398401C195C81A8FFF7C6FE65E092
:1004E0008398801C819B1A5C8398401C195C81A8AE
:1004F000FFF7D3FE5AE057E08398801C819B185C7D
:1005000042B28398401C195C81A8FFF7CFFE4DE0F2
:100510008398801C819B1A5C8398401C195C81A87D
:10052000FFF7CEFE42E08398801C819B185C42B2AC
:100530008398401C195C81A8FFF7DBFE36E08398A6
:10054000801C819B1A5C8398401C195C81A8FFF772
:10055000EBFE2BE08398801C819B1A5C8398401CE7
:10056000195C81A8FFF7F4FE20E00000003801408C
:1005700000000020040000201540EF008398801C3C
:10058000819B1A5C8398401C195C81A8FFF7F6FEDA
:100590000CE08398801C819B1A5C8398401C195C3A
:1005A00081A8FFF7FCFE01E000BFFEE72BE700BFDC
:1005B000FEE7704700BFFEE700BFFEE700BFFEE7B3
:1005C00000BFFEE7704770477047704700B585B0C1
:1005D000012144F2040000F0AFFC4FF40070ADF8CC
:1005E000100018208DF8130003208DF8120004A9C4
:1005F0007B4800F069FD4FF48060ADF810000420E6
:100600008DF8130004A9764800F05EFD012240F247
:100610002551744800F07FFF012240F22771714894
:1006200000F079FF4FF4E13000900020ADF80400B5
:10063000ADF80600ADF80800ADF80C000C20ADF8E0
:100640000A006946674800F0CEFE0121654800F0C7
:1006500056FF05B000BD70B504460D46E1B26148D5
:1006600000F0BDFF00BF40215E4801F026F80128E0
:10067000F9D1204670BDF0B503460D461646002759
:1006800029460A2E03D0002008702846F0BD33B951
:10069000302001F8010B002008702846F6E7002BF7
:1006A00003DA2D2001F8010B5B4242F210720DE0DB
:1006B00093FBF2F404B937B104F1300001F8010BF7
:1006C00004FB123301270A2092FBF0F2002AEFDC30
:1006D000002008702846D9E70FB470B586B00646EA
:1006E0000CA8019073E00B9800785C281CD10B9843
:1006F000401C0B9000786E2809D072280FD10D2174
:10070000304600F06CFF0B98401C0B900BE00A2168
:10071000304600F064FF0B98401C0B9003E00B98F0
:10072000401C0B9000BF4BE00B980078252840D16F
:100730000B98401C0B900078642818D0732833D194
:10074000019810C801900BE02178304600F047FF77
:1007500000BF4021304600F0B0FF0028F9D0641CF3
:1007600020780028F0D10B98401C0B9020E00198D5
:1007700020C801900A2202A92846FFF77CFF02AC9C
:100780000BE02178304600F02AFF00BF40213046C0
:1007900000F093FF0028F9D0641C20780028F0D1E5
:1007A0000B98401C0B9003E00B98401C0B9000BF73
:1007B00006E00B9810F8011B0B90304600F00FFF7D
:1007C00000BF4021304600F078FF0028F9D00B9898
:1007D0000078002887D106B070BC5DF814FB0000DB
:1007E000000801400038014000B587B001212420F5
:1007F00000F0A2FB0121080300F09EFB2020ADF8D1
:10080000040003208DF8060018208DF8070001A9C8
:10081000F84800F059FC4020ADF8040001A9F54863
:1008200000F052FC8020ADF8040001A9F14800F06E
:100830004BFC1020ADF804008DF8070001A9ED482D
:1008400000F042FC1021EB4800F0E9FC0020ADF87C
:1008500008004FF48270ADF80A000020ADF80C00DB
:100860000220ADF80E000120ADF810004002ADF8F6
:1008700012002820ADF814000020ADF81600072063
:10088000ADF8180002A9DC4800F096FF0121DA4813
:1008900001F035F807B000BD10B5044600BF0221D5
:1008A000D54801F0B5F80028F9D02146D24801F02A
:1008B0005CF800BF0121D04801F0AAF80028F9D067
:1008C000CD4801F054F8C0B210BD10B5002410217D
:1008D000C84800F0A6FC0520FFF7DEFF00BFFF20A0
:1008E000FFF7DAFF044604F001000128F7D01021D9
:1008F000C04800F094FC10BD10B51021BD4800F0B8
:1009000090FC0620FFF7C8FF1021BA4800F087FCD2
:1009100010BD10B50446FFF7EFFFFFF7D6FF10211B
:10092000B44800F07EFC2020FFF7B6FFC4F3074078
:10093000FFF7B2FFC4F30720FFF7AEFFE0B2FFF707
:10094000ABFF1021AB4800F06AFCFFF7BEFF10BD03
:1009500010B5FFF7D1FF1021A64800F062FCC720B8
:10096000FFF79AFF1021A34800F059FCFFF7ADFFF5
:1009700010BD70B505460C461646FFF7BDFF1021A9
:100980009C4800F04EFC0220FFF786FFC4F30740AE
:10099000FFF782FFC4F30720FFF77EFFE0B2FFF707
:1009A0007BFFB6F5807F01DD4FF4807603E0287889
:1009B000FFF772FF6D1C3000A6F101018EB2F6D177
:1009C00010218C4800F02BFCFFF77FFF70BD2DE954
:1009D000F05F07460E4614464FF00008C146C24677
:1009E0000025AB4606F0FF0ACAF10000C5B220465A
:1009F000E11704EB1161C1F30728E11704EB116162
:100A00000912A4EB012101F0FF09BAF1000F20D176
:100A1000B8F1000F05D1224631463846FFF7A9FF4D
:100A200064E009E04FF4807231463846FFF7A1FFD9
:100A300006F5807607F580775FEA0800A8F10101E6
:100A400001F0FF08EED14A4631463846FFF791FFE4
:100A50004CE0B8F1000F18D1A94510DDA9EB050055
:100A600000F0FF0B2A4631463846FFF782FF2E443E
:100A70002F445A4631463846FFF77BFF36E0224680
:100A800031463846FFF775FF30E0601B84B22046E0
:100A9000E11704EB1161C1F30728E11704EB1161C1
:100AA0000912A4EB012101F0FF092A46314638461C
:100AB000FFF75FFF2E442F4409E04FF48072314668
:100AC0003846FFF756FF06F5807607F580775FEA30
:100AD0000800A8F1010101F0FF08EED1B9F1000F03
:100AE00004D04A4631463846FFF743FFBDE8F09F41
:100AF00070B505460C46164610213E4800F091FBA5
:100B00000320FFF7C9FEC4F30740FFF7C5FEC4F397
:100B10000720FFF7C1FEE0B2FFF7BEFE04E0FF20B2
:100B2000FFF7BAFE28706D1C3000A6F101018EB2ED
:100B3000F5D110212F4800F072FB70BD2DE9F04176
:100B4000002400250026002710212A4800F069FB18
:100B50009F20FFF7A1FEFF20FFF79EFE0546FF2026
:100B6000FFF79AFE0646FF20FFF796FE0746102184
:100B7000204800F054FB280440EA062040EA07041D
:100B80002046BDE8F08110B500241021194800F07E
:100B900048FBAB20FFF780FEFF20FFF77DFEFF2024
:100BA000FFF77AFEFF20FFF777FEFF20FFF774FEC6
:100BB000044610210F4800F032FB204610BD10B54E
:100BC000044610210B4800F02CFB0320FFF764FEC5
:100BD000C4F30740FFF760FEC4F30720FFF75CFE95
:100BE000E0B2FFF759FE10BD10B5FF20FFF754FE2D
:100BF00010BD0000000801400030014010B504465F
:100C000000BF0221164800F003FF0028F9D021465A
:100C1000134800F0AAFE00BF0121114800F0F8FEC1
:100C20000028F9D00E4800F0A2FE10BD10B510212A
:100C30000C4800F0F6FAB920FFF72EFE1021094803
:100C400000F0EDFA10BD10B51021064800F0E9FAE9
:100C5000AB20FFF721FE1021024800F0E0FA10BDA2
:100C60000030014000080140DC48006840F001000D
:100C7000DA49086008464068D9490840D7494860C1
:100C800008460068D7490840D4490860084600680B
:100C900020F4802008600846406820F4FE00486088
:100CA0004FF41F0088607047CC49096821F48031F7
:100CB000CA4A11601146096821F480211160B0F51B
:100CC000803F03D0B0F5802F0ED106E0C3490968FC
:100CD00041F48031C14A116007E0C049096841F41C
:100CE000A021BE4A116000E000BF00BF704710B5F0
:100CF00001460022002300204A11012A02D1B74CEC
:100D0000236806E0022A02D1B44C236A01E0B34C06
:100D1000636A01F01F02012494401C4201D00120AB
:100D200000E0002010BD70B500240025002600BFA3
:100D30003120FFF7DCFF0646641CB4F5A06F01D03C
:100D4000002EF5D03120FFF7D2FF08B1012500E0D9
:100D50000025284670BD01460020A04A106820F0FA
:100D6000F80040EAC100106070479F490860704772
:100D700002460020994B586820F47C1042EA010397
:100D80001843964B5860704797490866704701466C
:100D90000020924A506820F00300084350607047DA
:100DA0008E48406800F00C007047014600208B4AD6
:100DB000506820F0F0000843506070470146002062
:100DC000864A506820F4E06008435060704701464E
:100DD0000020824A506820F4605040EAC100506010
:100DE000704729B17D4A527A02437C4B5A7206E021
:100DF0007A4A527AC343DBB21A40784B5A72704730
:100E00007A490860704701460020744A506820F40F
:100E100040400843506070470021754A11706F4A86
:100E200082F82010012802D0042808D103E0012113
:100E30006F4A117004E005216D4A117000E000BF97
:100E400000BF70476B49086070476449096A0143F5
:100E5000624A11627047674944390860704730B58B
:100E600000210022002400235C4D6D6805F00C0178
:100E700021B1042905D0082923D105E05E4D056084
:100E800022E05D4D05601FE0544D6D6805F4701261
:100E9000524D6D6805F48034022505EB92421CB971
:100EA000564D554305600BE04C4D6D6815F4003F01
:100EB00003D0524D5543056002E04F4D5543056048
:100EC00002E04D4D056000BF00BF444D6D6805F068
:100ED000F00109094A4D6B5C0568DD4045603F4DF6
:100EE0006D6805F4E061090A454D6B5C4568DD40BD
:100EF00085603A4D6D6805F46051C90A404D6B5CE0
:100F00004568DD40C560354D6D6805F44041890B8D
:100F10003C4D6B5CC568B5FBF3F5056130BD29B18F
:100F20002E4A526902432D4B5A6104E02B4A526902
:100F300082432A4B5A61704729B1284A9269024379
:100F4000264B9A6104E0254A92698243234B9A61B9
:100F5000704729B1214AD2690243204BDA6104E08B
:100F60001E4AD26982431D4BDA61704729B11B4A80
:100F7000D2680243194BDA6004E0184AD26882430F
:100F8000164BDA60704729B1144A12690243134BB9
:100F90001A6104E0114A12698243104B1A617047CA
:100FA00014494039086070470F49C86470470B49BD
:100FB000C87170470948406A40F08070074948622C
:100FC000704701460020054A92680A4201D001207C
:100FD00000E000207047014988727047001002400D
:100FE0000000FFF8FFFFF6FE00004242D800424238
:100FF000201002408004424200127A0000093D00A5
:10100000080000201800002010B50446CA48844299
:1010100008D101210420FFF7A9FF00210420FFF7D8
:10102000A5FF46E0C548844208D101210820FFF70A
:101030009DFF00210820FFF799FF3AE0C048844255
:1010400008D101211020FFF791FF00211020FFF7A8
:101050008DFF2EE0BB48844208D101212020FFF7FC
:1010600085FF00212020FFF781FF22E0B64884425F
:1010700008D101214020FFF779FF00214020FFF730
:1010800075FF16E0B148844208D101218020FFF7A6
:101090006DFF00218020FFF769FF0AE0AC48844221
:1010A00007D101218015FFF761FF0021A015FFF78F
:1010B0005DFF10BD10B501210846FFF757FF002165
:1010C0000120FFF753FF10BD2DE9F0410246002536
:1010D0000026002000230024002791F803C00CF014
:1010E0000F0591F803C01CF0100F03D091F802C057
:1010F0004CEA0505B1F800C01CF0FF0F31D01468B0
:1011000000202BE04FF0010C0CFA00F3B1F800C006
:101110000CEA03069E4220D183004FF00F0C0CFA1C
:1011200003F7BC4305FA03FC4CEA040491F803C03E
:10113000BCF1280F06D14FF0010C0CFA00FCC2F8EC
:1011400014C00AE091F803C0BCF1480F05D14FF07C
:10115000010C0CFA00FCC2F810C0401C0828D1D3C6
:101160001460B1F800C0BCF1FF0F34DD54680020FA
:101170002EE000F1080C4FF0010808FA0CF3B1F86A
:1011800000C00CEA03069E4221D183004FF00F0CF1
:101190000CFA03F7BC4305FA03FC4CEA040491F88B
:1011A00003C0BCF1280F05D100F1080C08FA0CF8B7
:1011B000C2F8148091F803C0BCF1480F07D100F1C8
:1011C000080C4FF0010808FA0CF8C2F81080401C17
:1011D0000828CED35460BDE8F0814FF6FF7101803E
:1011E000022181700421C17070470246002093687B
:1011F0000B4201D0012000E00020704701468868C2
:1012000080B2704702460020D3680B4201D0012013
:1012100000E0002070470146C86880B27047016155
:101220007047416170470AB1016100E04161704758
:10123000C16070474FF480320A43826181618261EC
:1012400082698269704702460020424B18684FF657
:101250008073184040EA021008433E4B1860704704
:101260003D49C8617047F0B50A46002300240021BB
:10127000002500F00046B6F1004F02D1354EF1696D
:1012800001E0344E7168C0F3034583B200F44016A8
:10129000B6F5401F08D121F070612E4E766826F019
:1012A00070662C4F7E6012E000F48016B6F5801F49
:1012B00006D1032606FA05F4A14341F0706106E069
:1012C000460D360103FA06F6B14341F0706122B1D2
:1012D000460D360103FA06F6314300F00046B6F13A
:1012E000004F02D11B4EF16101E01A4E7160F0BD5A
:1012F00030B500228B071C0F0F2303FA04F2154BA5
:1013000008338C1053F824309343124C08348D105A
:1013100044F8253023468C1053F824308C07240FD2
:1013200000FA04F423430B4C08348D1044F82530A4
:1013300030BD0A490860704700080140000C0140B8
:10134000001001400014014000180140001C014041
:10135000002001400000014000002042DC0020424B
:1013600010B50446FC48844209D101218803FFF7E7
:10137000FDFD00214FF48040FFF7F8FD32E0F74813
:10138000844209D101214804FFF7FDFD00214FF4FB
:101390000030FFF7F8FD25E0F148844209D1012132
:1013A0008804FFF7F0FD00214FF48020FFF7EBFDEC
:1013B00018E0EC48844209D10121C804FFF7E3FD9D
:1013C00000214FF40020FFF7DEFD0BE0E6488442E9
:1013D00008D101210805FFF7D6FD00214FF4801048
:1013E000FFF7D1FD10BD2DE9F04786B005460E464A
:1013F0000024A24600BFA1460027B08900B100BF6B
:101400002F462C8A4CF6FF700440F08804432C824F
:10141000AC894EF6F3100440B088318908437189D5
:1014200008430443AC81AC8A4FF6FF400440B089C6
:101430000443AC8201A8FFF712FDC748874202D1DE
:10144000DDF810A001E0DDF80CA0A88910F4004F31
:1014500008D00AEBCA0000EB0A1031684900B0FB63
:10146000F1F807E00AEBCA0000EB0A1031688900C6
:10147000B0FBF1F86420B8FBF0F00401200964210E
:1014800001FB1089A88910F4004F08D0322000EB2E
:10149000C900B0FBF1F000F00700044308E032207F
:1014A00000EB09106421B0FBF1F000F00F000443E1
:1014B0002C8106B0BDE8F0874FF416510160002181
:1014C0008180C18001810C2141810021818170478F
:1014D00010B502460020108A4FF2FF0318400B8817
:1014E0004C8823438C882343CC88234318431082A1
:1014F00010BD0021018041808180C180704721B1F1
:10150000828942F40052828104E082894DF6FF73A1
:101510001A4082817047F0B503460024002600255A
:101520000020A1F510676A3F00D100BF1846C1F343
:10153000421401F01F06012707FA06F5012C01D11C
:101540000C3004E0022C01D1103000E014301AB14C
:1015500007682F43076002E00768AF430760F0BDEC
:1015600010B51AB1838A0B43838204E0838ACC438B
:10157000A4B22340838210BD028A4FF6F0731A4052
:101580000282028A0A430282704782894FF2FF7305
:101590001A40828182890A438281704721B18289FF
:1015A00042F00202828104E082894FF6FD731A4004
:1015B00082817047028A4FF6DF731A400282028AE4
:1015C0000A430282704721B1028A42F480420282B9
:1015D00004E0028A4BF6FF731A4002827047C1F39F
:1015E00008028280704701468888C0F3080070476F
:1015F000818941F0010181817047028BD2B202835F
:10160000028B42EA012202837047028B02F47F427E
:101610000283028B0A430283704721B1828A42F01F
:101620002002828204E0828A4FF6DF731A408282AF
:10163000704721B1828A42F01002828204E0828ADD
:101640004FF6EF731A408282704721B1828A42F0CE
:101650000802828204E0828A4FF6F7731A4082827F
:10166000704721B1828942F40042828103E082897D
:10167000C2F30E028281704721B1828A42F4006275
:10168000828204E0828A4FF2FF731A40828270479E
:10169000828A4FF6FB731A408282828A0A438282D0
:1016A000704721B1828A42F00202828204E0828A7B
:1016B0004FF6FD731A408282704702460020B1F552
:1016C000007F00D100BF13880B4201D0012000E051
:1016D0000020704701F40072B2F5007F00D100BF16
:1016E000CA430280704770B50246002400230025DB
:1016F0000020A1F510666A3E00D100BFC1F342157B
:1017000001F01F03012606FA03F3012D02D1968989
:10171000334006E0022D02D1168A334001E0968A5A
:1017200033400C12012606FA04F41688344013B133
:101730000CB1012000E0002070BD10B50022002394
:10174000A1F510646A3C00D100BF0A120124944044
:10175000A3B2DC43048010BD0038014000440040C7
:1017600000480040004C00400050004010B50446C6
:10177000BF48844208D101218014FFF7F7FB002104
:10178000A014FFF7F3FB16E0BA48844208D1012108
:101790000014FFF7F8FB00212014FFF7F4FB0AE028
:1017A000B548844207D10121C013FFF7ECFB0021AB
:1017B000E013FFF7E8FB10BD10B50022028802F429
:1017C00041520B884C8823438C882343CC88234385
:1017D0000C8923434C8923438C892343CC8923439D
:1017E0001A430280838B4FF2FF74234083830B8A5A
:1017F000038210BD2DE9F04F85B005460C464FF031
:10180000000902274FF000084FF0010B0026B246F6
:10181000A88B4FF240010840A88302202884B5F825
:101820001C90A068022801D100BF36E0A08810B942
:101830004FF0010B01E04FF0020B8E48854200D1C2
:1018400000E000BF6846FFF70AFBDDF800A0E08873
:10185000B0F5007F0AD14FEA1A2000EB800040006B
:10186000A168B0FBF1F0401D86B20BE04FEA4B10CF
:10187000BAFBF0F000EB80004000A168B0FBF1F093
:10188000401D86B20A20B6FBF0F606F00108A6EB72
:101890000800C0F34F074FEA0828022F01DBFF2F93
:1018A00002DD02274FF00008E08840EA08003843D4
:1018B0002884A088A18908436188084321880843B7
:1018C00040F4006040EA0909A5F81C9005B0BDE8A5
:1018D000F08F0021018041808180C18001814181A0
:1018E0008181C181072101827047002101804180EF
:1018F0008180C1800221816000218181704721B1F6
:10190000028842F04002028004E002884FF6BF7372
:101910001A400280704721B1828B42F48062828338
:1019200004E0828B4FF6FF331A408283704770B514
:10193000002400230C110125A540ABB21AB1858803
:101940001D43858004E08588DE43B6B2354085803E
:1019500070BD10B51AB183880B43838004E083887F
:10196000CC43A4B22340838010BD818170470146DF
:1019700088897047A1F57E42FF3A04D0028842F47C
:101980008072028004E002884FF6FF631A400280F2
:10199000704721B1828842F00402828004E082888C
:1019A0004FF6FB731A408280704702884FF2FF7334
:1019B0001A40028002880A4302807047018841F47D
:1019C00080510180704721B1028842F400520280A8
:1019D00004E002884DF6FF731A4002807047024609
:1019E0000020012901D0108B00E0908A7047014649
:1019F000088A7047B1F5804F04D1028842F48042D2
:101A0000028004E002884BF6FF731A4002807047A0
:101A10000246002013890B4201D0012000E0002083
:101A20007047CA4302817047F0B502460020002487
:101A30000023002501F00F070126BE40B4B20B11B0
:101A400001269E40B3B2968806EA0305168926420F
:101A500002D00DB1012000E00020F0BD10B5002241
:101A600001F00F040123A3409AB2D343038110BDB8
:101A70000030014000380040003C004000210020C0
:101A8000674A126842F48032654B1A6000BF644AAC
:101A9000126802F40030491C10B9B1F5A06FF6D1FC
:101AA0005F4A126812F4003F01D0012000E00020DC
:101AB000012842D15B4A126842F01002594B1A6069
:101AC0001A46126822F003021A601A46126842F09F
:101AD00002021A60524A5268514B5A601A465268C2
:101AE0005A601A46526842F480625A601A46526836
:101AF00022F47C125A601A46526842F4E8125A6084
:101B00001A46126842F080721A6000BF444A126896
:101B100012F0007FFAD0424A526822F00302404B92
:101B20005A601A46526842F002025A6000BF3C4AAC
:101B3000526802F00C02082AF9D1704710B5FFF77D
:101B40009DFF10BD10B53648006840F001003449D3
:101B500008600846406834490840314948600846F2
:101B60000068324908402E4908600846006820F4A1
:101B7000802008600846406820F4FE0048604FF46A
:101B80001F008860FFF7DAFF4FF000602849086007
:101B900010BD10B5002100200022214B5B6803F02E
:101BA0000C0121B1042906D0082928D107E0214BD6
:101BB000214C236027E01F4B1F4C236023E0184B70
:101BC0005B6803F47010164B5B6803F480320223E9
:101BD00003EB904022B9194B4343174C23600DE0AF
:101BE0000F4B5B6813F4003F04D0144B4343124C7B
:101BF000236003E00F4B43430F4C236003E00D4B86
:101C00000D4C236000BF00BF054B5B68C3F303139B
:101C10000B4CE15C084B1B68CB40074C236010BDAC
:101C200000100240002002400000FFF8FFFFF6FE17
:101C300008ED00E000127A001C00002000093D00C1
:101C400020000020D2B201E000F8012B491EFBD297
:101C500070470022F6E710B50446084611460246D2
:101C60002046FFF7EFFF204610BD0000064C074D51
:101C700006E0E06840F0010394E80700984710345C
:101C8000AC42F6D3FEF758FAB01C0008D01C00088E
:101C900002E008C8121F08C1002AFAD17047704735
:101CA000002001E001C1121F002AFBD17047000093
:101CB000D01C00080000002030000000901C00082C
:101CC000001D00083000002000040000A01C0008D7
:101CD00000000000000000000000000001020304FA
:101CE00001020304060708090204060800A24A04C8
:101CF00000000000000000000102030406070809BC
:0400000508000131BD
:00000001FF
